{"abi":[{"type":"function","name":"UPGRADE_INTERFACE_VERSION","inputs":[],"outputs":[{"name":"","type":"string","internalType":"string"}],"stateMutability":"view"},{"type":"function","name":"UserInput","inputs":[{"name":"Guesses","type":"uint8[10]","internalType":"uint8[10]"}],"outputs":[{"name":"","type":"bool","internalType":"bool"}],"stateMutability":"view"},{"type":"function","name":"getFlips","inputs":[],"outputs":[{"name":"","type":"uint8[10]","internalType":"uint8[10]"}],"stateMutability":"view"},{"type":"function","name":"initialize","inputs":[],"outputs":[],"stateMutability":"nonpayable"},{"type":"function","name":"owner","inputs":[],"outputs":[{"name":"","type":"address","internalType":"address"}],"stateMutability":"view"},{"type":"function","name":"proxiableUUID","inputs":[],"outputs":[{"name":"","type":"bytes32","internalType":"bytes32"}],"stateMutability":"view"},{"type":"function","name":"renounceOwnership","inputs":[],"outputs":[],"stateMutability":"nonpayable"},{"type":"function","name":"seed","inputs":[],"outputs":[{"name":"","type":"string","internalType":"string"}],"stateMutability":"view"},{"type":"function","name":"seedRotation","inputs":[{"name":"NewSeed","type":"string","internalType":"string"}],"outputs":[],"stateMutability":"nonpayable"},{"type":"function","name":"transferOwnership","inputs":[{"name":"newOwner","type":"address","internalType":"address"}],"outputs":[],"stateMutability":"nonpayable"},{"type":"function","name":"upgradeToAndCall","inputs":[{"name":"newImplementation","type":"address","internalType":"address"},{"name":"data","type":"bytes","internalType":"bytes"}],"outputs":[],"stateMutability":"payable"},{"type":"event","name":"Initialized","inputs":[{"name":"version","type":"uint64","indexed":false,"internalType":"uint64"}],"anonymous":false},{"type":"event","name":"OwnershipTransferred","inputs":[{"name":"previousOwner","type":"address","indexed":true,"internalType":"address"},{"name":"newOwner","type":"address","indexed":true,"internalType":"address"}],"anonymous":false},{"type":"event","name":"Upgraded","inputs":[{"name":"implementation","type":"address","indexed":true,"internalType":"address"}],"anonymous":false},{"type":"error","name":"AddressEmptyCode","inputs":[{"name":"target","type":"address","internalType":"address"}]},{"type":"error","name":"ERC1967InvalidImplementation","inputs":[{"name":"implementation","type":"address","internalType":"address"}]},{"type":"error","name":"ERC1967NonPayable","inputs":[]},{"type":"error","name":"FailedCall","inputs":[]},{"type":"error","name":"InvalidInitialization","inputs":[]},{"type":"error","name":"NotInitializing","inputs":[]},{"type":"error","name":"OwnableInvalidOwner","inputs":[{"name":"owner","type":"address","internalType":"address"}]},{"type":"error","name":"OwnableUnauthorizedAccount","inputs":[{"name":"account","type":"address","internalType":"address"}]},{"type":"error","name":"SeedTooShort","inputs":[]},{"type":"error","name":"UUPSUnauthorizedCallContext","inputs":[]},{"type":"error","name":"UUPSUnsupportedProxiableUUID","inputs":[{"name":"slot","type":"bytes32","internalType":"bytes32"}]}],"bytecode":{"object":"0x60a0604052306080523480156012575f5ffd5b506080516110136100395f395f81816107260152818161074f015261089301526110135ff3fe60806040526004361061009a575f3560e01c8063715018a611610062578063715018a6146101495780637d94792a1461015d5780638129fc1c1461017e5780638da5cb5b14610192578063ad3cb1cc146101d8578063f2fde38b14610208575f5ffd5b8063157382401461009e57806327236822146100d25780634f1ef286146100f357806352d1902d146101065780635ff7a0bd14610128575b5f5ffd5b3480156100a9575f5ffd5b506100bd6100b8366004610b9d565b610227565b60405190151581526020015b60405180910390f35b3480156100dd575f5ffd5b506100f16100ec366004610c4f565b6102a0565b005b6100f1610101366004610cb7565b6102df565b348015610111575f5ffd5b5061011a6102fe565b6040519081526020016100c9565b348015610133575f5ffd5b5061013c610319565b6040516100c99190610d15565b348015610154575f5ffd5b506100f16104a5565b348015610168575f5ffd5b506101716104b8565b6040516100c99190610d49565b348015610189575f5ffd5b506100f1610543565b34801561019d575f5ffd5b507f9016d09d72d40fdae2fd8ceac6b6234c7706214fd39c1cd1e609a0528c199300546040516001600160a01b0390911681526020016100c9565b3480156101e3575f5ffd5b50610171604051806040016040528060058152602001640352e302e360dc1b81525081565b348015610213575f5ffd5b506100f1610222366004610d7e565b61067e565b5f5f610231610319565b90505f5b600a811015610296578181600a811061025057610250610d97565b602002015160ff168482600a811061026a5761026a610d97565b60200201602081019061027d9190610dab565b60ff161461028e57505f9392505050565b600101610235565b5060019392505050565b6102a86106c0565b80518190600a8110156102ce5760405163cde2a69360e01b815260040160405180910390fd5b5f6102d98482610e41565b50505050565b6102e761071b565b6102f0826107bf565b6102fa82826107c7565b5050565b5f610307610888565b505f516020610f875f395f51905f5290565b610321610b7e565b5f5f805461032e90610dcb565b80601f016020809104026020016040519081016040528092919081815260200182805461035a90610dcb565b80156103a55780601f1061037c576101008083540402835291602001916103a5565b820191905f5260205f20905b81548152906001019060200180831161038857829003601f168201915b505050505090505f815190506103b9610b7e565b5f6103c5600a84610f10565b90505f5b600a81101561049b575f856103de8484610f23565b815181106103ee576103ee610d97565b602001015160f81c60f81b426040516020016104209291906001600160f81b0319929092168252602082015260400190565b60408051601f1981840301815291905280516020909101209050610445600282610f46565b5f036104715760018483600a811061045f5761045f610d97565b60ff9092166020929092020152610492565b5f8483600a811061048457610484610d97565b60ff90921660209290920201525b506001016103c9565b5090949350505050565b6104ad6106c0565b6104b65f6108d1565b565b5f80546104c490610dcb565b80601f01602080910402602001604051908101604052809291908181526020018280546104f090610dcb565b801561053b5780601f106105125761010080835404028352916020019161053b565b820191905f5260205f20905b81548152906001019060200180831161051e57829003601f168201915b505050505081565b7ff0c57e16840df040f15088dc2f81fe391c3923bec73e23a9662efc9c229c6a008054600160401b810460ff16159067ffffffffffffffff165f811580156105885750825b90505f8267ffffffffffffffff1660011480156105a45750303b155b9050811580156105b2575080155b156105d05760405163f92ee8a960e01b815260040160405180910390fd5b845467ffffffffffffffff1916600117855583156105fa57845460ff60401b1916600160401b1785555b610602610941565b61060b33610949565b604051806060016040528060378152602001610fa7603791395f906106309082610e41565b50831561067757845460ff60401b19168555604051600181527fc7f505b2f371ae2175ee4913f4499e1f2633a7b5936321eed1cdaeb6115181d29060200160405180910390a15b5050505050565b6106866106c0565b6001600160a01b0381166106b457604051631e4fbdf760e01b81525f60048201526024015b60405180910390fd5b6106bd816108d1565b50565b336106f27f9016d09d72d40fdae2fd8ceac6b6234c7706214fd39c1cd1e609a0528c199300546001600160a01b031690565b6001600160a01b0316146104b65760405163118cdaa760e01b81523360048201526024016106ab565b306001600160a01b037f00000000000000000000000000000000000000000000000000000000000000001614806107a157507f00000000000000000000000000000000000000000000000000000000000000006001600160a01b03166107955f516020610f875f395f51905f52546001600160a01b031690565b6001600160a01b031614155b156104b65760405163703e46dd60e11b815260040160405180910390fd5b6106bd6106c0565b816001600160a01b03166352d1902d6040518163ffffffff1660e01b8152600401602060405180830381865afa925050508015610821575060408051601f3d908101601f1916820190925261081e91810190610f59565b60015b61084957604051634c9c8ce360e01b81526001600160a01b03831660048201526024016106ab565b5f516020610f875f395f51905f52811461087957604051632a87526960e21b8152600481018290526024016106ab565b610883838361095a565b505050565b306001600160a01b037f000000000000000000000000000000000000000000000000000000000000000016146104b65760405163703e46dd60e11b815260040160405180910390fd5b7f9016d09d72d40fdae2fd8ceac6b6234c7706214fd39c1cd1e609a0528c19930080546001600160a01b031981166001600160a01b03848116918217845560405192169182907f8be0079c531659141344cd1fd0a4f28419497f9722a3daafe3b4186f6b6457e0905f90a3505050565b6104b66109af565b6109516109af565b6106bd816109f8565b61096382610a00565b6040516001600160a01b038316907fbc7cd75a20ee27fd9adebab32041f755214dbc6bffa90cc0225b39da2e5c2d3b905f90a28051156109a7576108838282610a63565b6102fa610ad7565b7ff0c57e16840df040f15088dc2f81fe391c3923bec73e23a9662efc9c229c6a0054600160401b900460ff166104b657604051631afcd79f60e31b815260040160405180910390fd5b6106866109af565b806001600160a01b03163b5f03610a3557604051634c9c8ce360e01b81526001600160a01b03821660048201526024016106ab565b5f516020610f875f395f51905f5280546001600160a01b0319166001600160a01b0392909216919091179055565b60605f5f846001600160a01b031684604051610a7f9190610f70565b5f60405180830381855af49150503d805f8114610ab7576040519150601f19603f3d011682016040523d82523d5f602084013e610abc565b606091505b5091509150610acc858383610af6565b925050505b92915050565b34156104b65760405163b398979f60e01b815260040160405180910390fd5b606082610b0b57610b0682610b55565b610b4e565b8151158015610b2257506001600160a01b0384163b155b15610b4b57604051639996b31560e01b81526001600160a01b03851660048201526024016106ab565b50805b9392505050565b805115610b655780518082602001fd5b60405163d6bda27560e01b815260040160405180910390fd5b604051806101400160405280600a906020820280368337509192915050565b5f6101408284031215610bae575f5ffd5b8261014083011115610bbe575f5ffd5b50919050565b634e487b7160e01b5f52604160045260245ffd5b5f5f67ffffffffffffffff841115610bf257610bf2610bc4565b50604051601f19601f85018116603f0116810181811067ffffffffffffffff82111715610c2157610c21610bc4565b604052838152905080828401851015610c38575f5ffd5b838360208301375f60208583010152509392505050565b5f60208284031215610c5f575f5ffd5b813567ffffffffffffffff811115610c75575f5ffd5b8201601f81018413610c85575f5ffd5b610c9484823560208401610bd8565b949350505050565b80356001600160a01b0381168114610cb2575f5ffd5b919050565b5f5f60408385031215610cc8575f5ffd5b610cd183610c9c565b9150602083013567ffffffffffffffff811115610cec575f5ffd5b8301601f81018513610cfc575f5ffd5b610d0b85823560208401610bd8565b9150509250929050565b610140810181835f5b600a811015610d4057815160ff16835260209283019290910190600101610d1e565b50505092915050565b602081525f82518060208401528060208501604085015e5f604082850101526040601f19601f83011684010191505092915050565b5f60208284031215610d8e575f5ffd5b610b4e82610c9c565b634e487b7160e01b5f52603260045260245ffd5b5f60208284031215610dbb575f5ffd5b813560ff81168114610b4e575f5ffd5b600181811c90821680610ddf57607f821691505b602082108103610bbe57634e487b7160e01b5f52602260045260245ffd5b601f82111561088357805f5260205f20601f840160051c81016020851015610e225750805b601f840160051c820191505b81811015610677575f8155600101610e2e565b815167ffffffffffffffff811115610e5b57610e5b610bc4565b610e6f81610e698454610dcb565b84610dfd565b6020601f821160018114610ea1575f8315610e8a5750848201515b5f19600385901b1c1916600184901b178455610677565b5f84815260208120601f198516915b82811015610ed05787850151825560209485019460019092019101610eb0565b5084821015610eed57868401515f19600387901b60f8161c191681555b50505050600190811b01905550565b634e487b7160e01b5f52601260045260245ffd5b5f82610f1e57610f1e610efc565b500490565b8082028115828204841417610ad157634e487b7160e01b5f52601160045260245ffd5b5f82610f5457610f54610efc565b500690565b5f60208284031215610f69575f5ffd5b5051919050565b5f82518060208501845e5f92019182525091905056fe360894a13ba1a3210667c828492db98dca3e2076cc3735a920a3ca505d382bbc4974206973206120676f6f6420707261637469636520746f20726f74617465207365656473206f6674656e20696e2067616d626c696e67a2646970667358221220bcf6242f977315f274a69afa0f0b390f7fe4e05ccef3abf0224fb5015e4c815764736f6c634300081c0033","linkReferences":{}},"methodIdentifiers":{"UPGRADE_INTERFACE_VERSION()":"ad3cb1cc","UserInput(uint8[10])":"15738240","getFlips()":"5ff7a0bd","initialize()":"8129fc1c","owner()":"8da5cb5b","proxiableUUID()":"52d1902d","renounceOwnership()":"715018a6","seed()":"7d94792a","seedRotation(string)":"27236822","transferOwnership(address)":"f2fde38b","upgradeToAndCall(address,bytes)":"4f1ef286"},"id":36}