{"abi":[{"type":"function","name":"UPGRADE_INTERFACE_VERSION","inputs":[],"outputs":[{"name":"","type":"string","internalType":"string"}],"stateMutability":"view"},{"type":"function","name":"UserInput","inputs":[{"name":"Guesses","type":"uint8[10]","internalType":"uint8[10]"}],"outputs":[{"name":"","type":"bool","internalType":"bool"}],"stateMutability":"view"},{"type":"function","name":"getFlips","inputs":[],"outputs":[{"name":"","type":"uint8[10]","internalType":"uint8[10]"}],"stateMutability":"view"},{"type":"function","name":"initialize","inputs":[],"outputs":[],"stateMutability":"nonpayable"},{"type":"function","name":"owner","inputs":[],"outputs":[{"name":"","type":"address","internalType":"address"}],"stateMutability":"view"},{"type":"function","name":"proxiableUUID","inputs":[],"outputs":[{"name":"","type":"bytes32","internalType":"bytes32"}],"stateMutability":"view"},{"type":"function","name":"renounceOwnership","inputs":[],"outputs":[],"stateMutability":"nonpayable"},{"type":"function","name":"seed","inputs":[],"outputs":[{"name":"","type":"string","internalType":"string"}],"stateMutability":"view"},{"type":"function","name":"seedRotation","inputs":[{"name":"NewSeed","type":"string","internalType":"string"},{"name":"rotations","type":"uint256","internalType":"uint256"}],"outputs":[],"stateMutability":"nonpayable"},{"type":"function","name":"transferOwnership","inputs":[{"name":"newOwner","type":"address","internalType":"address"}],"outputs":[],"stateMutability":"nonpayable"},{"type":"function","name":"upgradeToAndCall","inputs":[{"name":"newImplementation","type":"address","internalType":"address"},{"name":"data","type":"bytes","internalType":"bytes"}],"outputs":[],"stateMutability":"payable"},{"type":"event","name":"Initialized","inputs":[{"name":"version","type":"uint64","indexed":false,"internalType":"uint64"}],"anonymous":false},{"type":"event","name":"OwnershipTransferred","inputs":[{"name":"previousOwner","type":"address","indexed":true,"internalType":"address"},{"name":"newOwner","type":"address","indexed":true,"internalType":"address"}],"anonymous":false},{"type":"event","name":"Upgraded","inputs":[{"name":"implementation","type":"address","indexed":true,"internalType":"address"}],"anonymous":false},{"type":"error","name":"AddressEmptyCode","inputs":[{"name":"target","type":"address","internalType":"address"}]},{"type":"error","name":"ERC1967InvalidImplementation","inputs":[{"name":"implementation","type":"address","internalType":"address"}]},{"type":"error","name":"ERC1967NonPayable","inputs":[]},{"type":"error","name":"FailedCall","inputs":[]},{"type":"error","name":"InvalidInitialization","inputs":[]},{"type":"error","name":"NotInitializing","inputs":[]},{"type":"error","name":"OwnableInvalidOwner","inputs":[{"name":"owner","type":"address","internalType":"address"}]},{"type":"error","name":"OwnableUnauthorizedAccount","inputs":[{"name":"account","type":"address","internalType":"address"}]},{"type":"error","name":"SeedTooShort","inputs":[]},{"type":"error","name":"UUPSUnauthorizedCallContext","inputs":[]},{"type":"error","name":"UUPSUnsupportedProxiableUUID","inputs":[{"name":"slot","type":"bytes32","internalType":"bytes32"}]}],"bytecode":{"object":"0x60a0604052306080523480156012575f5ffd5b506080516110f76100395f395f81816107e701528181610810015261095401526110f75ff3fe60806040526004361061009a575f3560e01c8063715018a611610062578063715018a6146101495780637d94792a1461015d5780638129fc1c1461017e5780638da5cb5b14610192578063ad3cb1cc146101d8578063f2fde38b14610208575f5ffd5b8063157382401461009e5780631f3c34b6146100d25780634f1ef286146100f357806352d1902d146101065780635ff7a0bd14610128575b5f5ffd5b3480156100a9575f5ffd5b506100bd6100b8366004610c5e565b610227565b60405190151581526020015b60405180910390f35b3480156100dd575f5ffd5b506100f16100ec366004610d10565b6102a0565b005b6100f1610101366004610d80565b6103a0565b348015610111575f5ffd5b5061011a6103bf565b6040519081526020016100c9565b348015610133575f5ffd5b5061013c6103da565b6040516100c99190610dde565b348015610154575f5ffd5b506100f1610566565b348015610168575f5ffd5b50610171610579565b6040516100c99190610e12565b348015610189575f5ffd5b506100f1610604565b34801561019d575f5ffd5b507f9016d09d72d40fdae2fd8ceac6b6234c7706214fd39c1cd1e609a0528c199300546040516001600160a01b0390911681526020016100c9565b3480156101e3575f5ffd5b50610171604051806040016040528060058152602001640352e302e360dc1b81525081565b348015610213575f5ffd5b506100f1610222366004610e47565b61073f565b5f5f6102316103da565b90505f5b600a811015610296578181600a811061025057610250610e60565b602002015160ff168482600a811061026a5761026a610e60565b60200201602081019061027d9190610e74565b60ff161461028e57505f9392505050565b600101610235565b5060019392505050565b6102a8610781565b81518290600a8110156102ce5760405163cde2a69360e01b815260040160405180910390fd5b6102d88184610ea8565b92505f8167ffffffffffffffff8111156102f4576102f4610c85565b6040519080825280601f01601f19166020018201604052801561031e576020820181803683370190505b5090505f5b8281101561038c5783836103378784610ecf565b6103419190610ea8565b8151811061035157610351610e60565b602001015160f81c60f81b82828151811061036e5761036e610e60565b60200101906001600160f81b03191690815f1a905350600101610323565b505f6103988282610f58565b505050505050565b6103a86107dc565b6103b182610880565b6103bb8282610888565b5050565b5f6103c8610949565b505f51602061106b5f395f51905f5290565b6103e2610c3f565b5f5f80546103ef90610ee2565b80601f016020809104026020016040519081016040528092919081815260200182805461041b90610ee2565b80156104665780601f1061043d57610100808354040283529160200191610466565b820191905f5260205f20905b81548152906001019060200180831161044957829003601f168201915b505050505090505f8151905061047a610c3f565b5f610486600a84611013565b90505f5b600a81101561055c575f8561049f8484611026565b815181106104af576104af610e60565b602001015160f81c60f81b426040516020016104e19291906001600160f81b0319929092168252602082015260400190565b60408051601f1981840301815291905280516020909101209050610506600282610ea8565b5f036105325760018483600a811061052057610520610e60565b60ff9092166020929092020152610553565b5f8483600a811061054557610545610e60565b60ff90921660209290920201525b5060010161048a565b5090949350505050565b61056e610781565b6105775f610992565b565b5f805461058590610ee2565b80601f01602080910402602001604051908101604052809291908181526020018280546105b190610ee2565b80156105fc5780601f106105d3576101008083540402835291602001916105fc565b820191905f5260205f20905b8154815290600101906020018083116105df57829003601f168201915b505050505081565b7ff0c57e16840df040f15088dc2f81fe391c3923bec73e23a9662efc9c229c6a008054600160401b810460ff16159067ffffffffffffffff165f811580156106495750825b90505f8267ffffffffffffffff1660011480156106655750303b155b905081158015610673575080155b156106915760405163f92ee8a960e01b815260040160405180910390fd5b845467ffffffffffffffff1916600117855583156106bb57845460ff60401b1916600160401b1785555b6106c3610a02565b6106cc33610a0a565b60405180606001604052806037815260200161108b603791395f906106f19082610f58565b50831561073857845460ff60401b19168555604051600181527fc7f505b2f371ae2175ee4913f4499e1f2633a7b5936321eed1cdaeb6115181d29060200160405180910390a15b5050505050565b610747610781565b6001600160a01b03811661077557604051631e4fbdf760e01b81525f60048201526024015b60405180910390fd5b61077e81610992565b50565b336107b37f9016d09d72d40fdae2fd8ceac6b6234c7706214fd39c1cd1e609a0528c199300546001600160a01b031690565b6001600160a01b0316146105775760405163118cdaa760e01b815233600482015260240161076c565b306001600160a01b037f000000000000000000000000000000000000000000000000000000000000000016148061086257507f00000000000000000000000000000000000000000000000000000000000000006001600160a01b03166108565f51602061106b5f395f51905f52546001600160a01b031690565b6001600160a01b031614155b156105775760405163703e46dd60e11b815260040160405180910390fd5b61077e610781565b816001600160a01b03166352d1902d6040518163ffffffff1660e01b8152600401602060405180830381865afa9250505080156108e2575060408051601f3d908101601f191682019092526108df9181019061103d565b60015b61090a57604051634c9c8ce360e01b81526001600160a01b038316600482015260240161076c565b5f51602061106b5f395f51905f52811461093a57604051632a87526960e21b81526004810182905260240161076c565b6109448383610a1b565b505050565b306001600160a01b037f000000000000000000000000000000000000000000000000000000000000000016146105775760405163703e46dd60e11b815260040160405180910390fd5b7f9016d09d72d40fdae2fd8ceac6b6234c7706214fd39c1cd1e609a0528c19930080546001600160a01b031981166001600160a01b03848116918217845560405192169182907f8be0079c531659141344cd1fd0a4f28419497f9722a3daafe3b4186f6b6457e0905f90a3505050565b610577610a70565b610a12610a70565b61077e81610ab9565b610a2482610ac1565b6040516001600160a01b038316907fbc7cd75a20ee27fd9adebab32041f755214dbc6bffa90cc0225b39da2e5c2d3b905f90a2805115610a68576109448282610b24565b6103bb610b98565b7ff0c57e16840df040f15088dc2f81fe391c3923bec73e23a9662efc9c229c6a0054600160401b900460ff1661057757604051631afcd79f60e31b815260040160405180910390fd5b610747610a70565b806001600160a01b03163b5f03610af657604051634c9c8ce360e01b81526001600160a01b038216600482015260240161076c565b5f51602061106b5f395f51905f5280546001600160a01b0319166001600160a01b0392909216919091179055565b60605f5f846001600160a01b031684604051610b409190611054565b5f60405180830381855af49150503d805f8114610b78576040519150601f19603f3d011682016040523d82523d5f602084013e610b7d565b606091505b5091509150610b8d858383610bb7565b925050505b92915050565b34156105775760405163b398979f60e01b815260040160405180910390fd5b606082610bcc57610bc782610c16565b610c0f565b8151158015610be357506001600160a01b0384163b155b15610c0c57604051639996b31560e01b81526001600160a01b038516600482015260240161076c565b50805b9392505050565b805115610c265780518082602001fd5b60405163d6bda27560e01b815260040160405180910390fd5b604051806101400160405280600a906020820280368337509192915050565b5f6101408284031215610c6f575f5ffd5b8261014083011115610c7f575f5ffd5b50919050565b634e487b7160e01b5f52604160045260245ffd5b5f5f67ffffffffffffffff841115610cb357610cb3610c85565b50604051601f19601f85018116603f0116810181811067ffffffffffffffff82111715610ce257610ce2610c85565b604052838152905080828401851015610cf9575f5ffd5b838360208301375f60208583010152509392505050565b5f5f60408385031215610d21575f5ffd5b823567ffffffffffffffff811115610d37575f5ffd5b8301601f81018513610d47575f5ffd5b610d5685823560208401610c99565b95602094909401359450505050565b80356001600160a01b0381168114610d7b575f5ffd5b919050565b5f5f60408385031215610d91575f5ffd5b610d9a83610d65565b9150602083013567ffffffffffffffff811115610db5575f5ffd5b8301601f81018513610dc5575f5ffd5b610dd485823560208401610c99565b9150509250929050565b610140810181835f5b600a811015610e0957815160ff16835260209283019290910190600101610de7565b50505092915050565b602081525f82518060208401528060208501604085015e5f604082850101526040601f19601f83011684010191505092915050565b5f60208284031215610e57575f5ffd5b610c0f82610d65565b634e487b7160e01b5f52603260045260245ffd5b5f60208284031215610e84575f5ffd5b813560ff81168114610c0f575f5ffd5b634e487b7160e01b5f52601260045260245ffd5b5f82610eb657610eb6610e94565b500690565b634e487b7160e01b5f52601160045260245ffd5b80820180821115610b9257610b92610ebb565b600181811c90821680610ef657607f821691505b602082108103610c7f57634e487b7160e01b5f52602260045260245ffd5b601f82111561094457805f5260205f20601f840160051c81016020851015610f395750805b601f840160051c820191505b81811015610738575f8155600101610f45565b815167ffffffffffffffff811115610f7257610f72610c85565b610f8681610f808454610ee2565b84610f14565b6020601f821160018114610fb8575f8315610fa15750848201515b5f19600385901b1c1916600184901b178455610738565b5f84815260208120601f198516915b82811015610fe75787850151825560209485019460019092019101610fc7565b508482101561100457868401515f19600387901b60f8161c191681555b50505050600190811b01905550565b5f8261102157611021610e94565b500490565b8082028115828204841417610b9257610b92610ebb565b5f6020828403121561104d575f5ffd5b5051919050565b5f82518060208501845e5f92019182525091905056fe360894a13ba1a3210667c828492db98dca3e2076cc3735a920a3ca505d382bbc4974206973206120676f6f6420707261637469636520746f20726f74617465207365656473206f6674656e20696e2067616d626c696e67a264697066735822122028db86c19336884df446284b868dab72738586c56bef50ad37fa3d9420ca8f0e64736f6c634300081c0033","linkReferences":{}},"methodIdentifiers":{"UPGRADE_INTERFACE_VERSION()":"ad3cb1cc","UserInput(uint8[10])":"15738240","getFlips()":"5ff7a0bd","initialize()":"8129fc1c","owner()":"8da5cb5b","proxiableUUID()":"52d1902d","renounceOwnership()":"715018a6","seed()":"7d94792a","seedRotation(string,uint256)":"1f3c34b6","transferOwnership(address)":"f2fde38b","upgradeToAndCall(address,bytes)":"4f1ef286"},"id":38}